{
  "contractName": "ExerciceSolution",
  "abi": [
    {
      "inputs": [],
      "stateMutability": "nonpayable",
      "type": "constructor"
    },
    {
      "inputs": [],
      "name": "addLiquidity",
      "outputs": [],
      "stateMutability": "nonpayable",
      "type": "function"
    },
    {
      "inputs": [],
      "name": "withdrawLiquidity",
      "outputs": [],
      "stateMutability": "nonpayable",
      "type": "function"
    },
    {
      "inputs": [],
      "name": "swapYourTokenForDummyToken",
      "outputs": [],
      "stateMutability": "nonpayable",
      "type": "function"
    },
    {
      "inputs": [],
      "name": "swapYourTokenForEth",
      "outputs": [],
      "stateMutability": "nonpayable",
      "type": "function"
    },
    {
      "inputs": [
        {
          "internalType": "address",
          "name": "_tokenIn",
          "type": "address"
        },
        {
          "internalType": "address",
          "name": "_tokenOut",
          "type": "address"
        },
        {
          "internalType": "uint256",
          "name": "_amountIn",
          "type": "uint256"
        },
        {
          "internalType": "uint256",
          "name": "_amountOutMin",
          "type": "uint256"
        },
        {
          "internalType": "address",
          "name": "_to",
          "type": "address"
        }
      ],
      "name": "swap",
      "outputs": [],
      "stateMutability": "nonpayable",
      "type": "function"
    }
  ],
  "bytecode": "0x608060405234801561001057600080fd5b50611155806100206000396000f3fe608060405234801561001057600080fd5b50600436106100575760003560e01c80637c587b221461005c5780637ea382c114610066578063c4a8599314610070578063d5bcb9b51461007a578063e8078d9414610112575b600080fd5b61006461011c565b005b61006e610639565b005b61007861063b565b005b610110600480360360a081101561009057600080fd5b81019080803573ffffffffffffffffffffffffffffffffffffffff169060200190929190803573ffffffffffffffffffffffffffffffffffffffff1690602001909291908035906020019092919080359060200190929190803573ffffffffffffffffffffffffffffffffffffffff169060200190929190505050610b01565b005b61011a61111d565b005b73d90bda252a5e2500a9b5445f3dd003aaa42b7d4273ffffffffffffffffffffffffffffffffffffffff166323b872dd333066038d7ea4c680006040518463ffffffff1660e01b8152600401808473ffffffffffffffffffffffffffffffffffffffff1673ffffffffffffffffffffffffffffffffffffffff1681526020018373ffffffffffffffffffffffffffffffffffffffff1673ffffffffffffffffffffffffffffffffffffffff1681526020018281526020019350505050602060405180830381600087803b1580156101f257600080fd5b505af1158015610206573d6000803e3d6000fd5b505050506040513d602081101561021c57600080fd5b81019080805190602001909291905050505073d90bda252a5e2500a9b5445f3dd003aaa42b7d4273ffffffffffffffffffffffffffffffffffffffff1663095ea7b3737a250d5630b4cf539739df2c5dacb4c659f2488d66038d7ea4c680006040518363ffffffff1660e01b8152600401808373ffffffffffffffffffffffffffffffffffffffff1673ffffffffffffffffffffffffffffffffffffffff16815260200182815260200192505050602060405180830381600087803b1580156102e457600080fd5b505af11580156102f8573d6000803e3d6000fd5b505050506040513d602081101561030e57600080fd5b810190808051906020019092919050505050606060036040519080825280602002602001820160405280156103525781602001602082028038833980820191505090505b50905073d90bda252a5e2500a9b5445f3dd003aaa42b7d428160008151811061037757fe5b602002602001019073ffffffffffffffffffffffffffffffffffffffff16908173ffffffffffffffffffffffffffffffffffffffff168152505073b4fbf271143f4fbf7b91a5ded31805e42b2208d6816001815181106103d357fe5b602002602001019073ffffffffffffffffffffffffffffffffffffffff16908173ffffffffffffffffffffffffffffffffffffffff1681525050732af483edae4cce53186e6ed418fe92f8169ad74e8160028151811061042f57fe5b602002602001019073ffffffffffffffffffffffffffffffffffffffff16908173ffffffffffffffffffffffffffffffffffffffff1681525050737a250d5630b4cf539739df2c5dacb4c659f2488d73ffffffffffffffffffffffffffffffffffffffff166338ed17396103e8600a8430426040518663ffffffff1660e01b815260040180868152602001858152602001806020018473ffffffffffffffffffffffffffffffffffffffff1673ffffffffffffffffffffffffffffffffffffffff168152602001838152602001828103825285818151815260200191508051906020019060200280838360005b8381101561053757808201518184015260208101905061051c565b505050509050019650505050505050600060405180830381600087803b15801561056057600080fd5b505af1158015610574573d6000803e3d6000fd5b505050506040513d6000823e3d601f19601f82011682018060405250602081101561059e57600080fd5b81019080805160405193929190846401000000008211156105be57600080fd5b838201915060208201858111156105d457600080fd5b82518660208202830111640100000000821117156105f157600080fd5b8083526020830192505050908051906020019060200280838360005b8381101561062857808201518184015260208101905061060d565b505050509050016040525050505050565b565b73d90bda252a5e2500a9b5445f3dd003aaa42b7d4273ffffffffffffffffffffffffffffffffffffffff166323b872dd333066038d7ea4c680006040518463ffffffff1660e01b8152600401808473ffffffffffffffffffffffffffffffffffffffff1673ffffffffffffffffffffffffffffffffffffffff1681526020018373ffffffffffffffffffffffffffffffffffffffff1673ffffffffffffffffffffffffffffffffffffffff1681526020018281526020019350505050602060405180830381600087803b15801561071157600080fd5b505af1158015610725573d6000803e3d6000fd5b505050506040513d602081101561073b57600080fd5b81019080805190602001909291905050505073d90bda252a5e2500a9b5445f3dd003aaa42b7d4273ffffffffffffffffffffffffffffffffffffffff1663095ea7b3737a250d5630b4cf539739df2c5dacb4c659f2488d66038d7ea4c680006040518363ffffffff1660e01b8152600401808373ffffffffffffffffffffffffffffffffffffffff1673ffffffffffffffffffffffffffffffffffffffff16815260200182815260200192505050602060405180830381600087803b15801561080357600080fd5b505af1158015610817573d6000803e3d6000fd5b505050506040513d602081101561082d57600080fd5b810190808051906020019092919050505050606060026040519080825280602002602001820160405280156108715781602001602082028038833980820191505090505b50905073d90bda252a5e2500a9b5445f3dd003aaa42b7d428160008151811061089657fe5b602002602001019073ffffffffffffffffffffffffffffffffffffffff16908173ffffffffffffffffffffffffffffffffffffffff168152505073b4fbf271143f4fbf7b91a5ded31805e42b2208d6816001815181106108f257fe5b602002602001019073ffffffffffffffffffffffffffffffffffffffff16908173ffffffffffffffffffffffffffffffffffffffff1681525050737a250d5630b4cf539739df2c5dacb4c659f2488d73ffffffffffffffffffffffffffffffffffffffff166338ed173966038d7ea4c68000600a8430426040518663ffffffff1660e01b815260040180868152602001858152602001806020018473ffffffffffffffffffffffffffffffffffffffff1673ffffffffffffffffffffffffffffffffffffffff168152602001838152602001828103825285818151815260200191508051906020019060200280838360005b838110156109ff5780820151818401526020810190506109e4565b505050509050019650505050505050600060405180830381600087803b158015610a2857600080fd5b505af1158015610a3c573d6000803e3d6000fd5b505050506040513d6000823e3d601f19601f820116820180604052506020811015610a6657600080fd5b8101908080516040519392919084640100000000821115610a8657600080fd5b83820191506020820185811115610a9c57600080fd5b8251866020820283011164010000000082111715610ab957600080fd5b8083526020830192505050908051906020019060200280838360005b83811015610af0578082015181840152602081019050610ad5565b505050509050016040525050505050565b8473ffffffffffffffffffffffffffffffffffffffff166323b872dd3330866040518463ffffffff1660e01b8152600401808473ffffffffffffffffffffffffffffffffffffffff1673ffffffffffffffffffffffffffffffffffffffff1681526020018373ffffffffffffffffffffffffffffffffffffffff1673ffffffffffffffffffffffffffffffffffffffff1681526020018281526020019350505050602060405180830381600087803b158015610bbc57600080fd5b505af1158015610bd0573d6000803e3d6000fd5b505050506040513d6020811015610be657600080fd5b8101908080519060200190929190505050508473ffffffffffffffffffffffffffffffffffffffff1663095ea7b3737a250d5630b4cf539739df2c5dacb4c659f2488d856040518363ffffffff1660e01b8152600401808373ffffffffffffffffffffffffffffffffffffffff1673ffffffffffffffffffffffffffffffffffffffff16815260200182815260200192505050602060405180830381600087803b158015610c9357600080fd5b505af1158015610ca7573d6000803e3d6000fd5b505050506040513d6020811015610cbd57600080fd5b810190808051906020019092919050505050606073b4fbf271143f4fbf7b91a5ded31805e42b2208d673ffffffffffffffffffffffffffffffffffffffff168673ffffffffffffffffffffffffffffffffffffffff161480610d5e575073b4fbf271143f4fbf7b91a5ded31805e42b2208d673ffffffffffffffffffffffffffffffffffffffff168573ffffffffffffffffffffffffffffffffffffffff16145b15610e2b576002604051908082528060200260200182016040528015610d935781602001602082028038833980820191505090505b5090508581600081518110610da457fe5b602002602001019073ffffffffffffffffffffffffffffffffffffffff16908173ffffffffffffffffffffffffffffffffffffffff16815250508481600181518110610dec57fe5b602002602001019073ffffffffffffffffffffffffffffffffffffffff16908173ffffffffffffffffffffffffffffffffffffffff1681525050610f4b565b6003604051908082528060200260200182016040528015610e5b5781602001602082028038833980820191505090505b5090508581600081518110610e6c57fe5b602002602001019073ffffffffffffffffffffffffffffffffffffffff16908173ffffffffffffffffffffffffffffffffffffffff168152505073b4fbf271143f4fbf7b91a5ded31805e42b2208d681600181518110610ec857fe5b602002602001019073ffffffffffffffffffffffffffffffffffffffff16908173ffffffffffffffffffffffffffffffffffffffff16815250508481600281518110610f1057fe5b602002602001019073ffffffffffffffffffffffffffffffffffffffff16908173ffffffffffffffffffffffffffffffffffffffff16815250505b737a250d5630b4cf539739df2c5dacb4c659f2488d73ffffffffffffffffffffffffffffffffffffffff166338ed173985858486426040518663ffffffff1660e01b815260040180868152602001858152602001806020018473ffffffffffffffffffffffffffffffffffffffff1673ffffffffffffffffffffffffffffffffffffffff168152602001838152602001828103825285818151815260200191508051906020019060200280838360005b83811015611016578082015181840152602081019050610ffb565b505050509050019650505050505050600060405180830381600087803b15801561103f57600080fd5b505af1158015611053573d6000803e3d6000fd5b505050506040513d6000823e3d601f19601f82011682018060405250602081101561107d57600080fd5b810190808051604051939291908464010000000082111561109d57600080fd5b838201915060208201858111156110b357600080fd5b82518660208202830111640100000000821117156110d057600080fd5b8083526020830192505050908051906020019060200280838360005b838110156111075780820151818401526020810190506110ec565b5050505090500160405250505050505050505050565b56fea2646970667358221220c0a17d55575cff776d54bb75542edca90c2365736eb0757d7eefe700228e5d8164736f6c63430006020033",
  "source": "pragma solidity ^0.6.2;\r\nimport \"./utils/IUniswapV2Router.sol\";\r\nimport \"./utils/IUniswapV2Pair.sol\";\r\nimport \"./IExerciceSolution.sol\";\r\nimport \"./IERC20.sol\";\r\n\r\ncontract ExerciceSolution is IExerciceSolution\r\n{\r\n    address private constant dummyToken = 0x2aF483edaE4cce53186E6ed418FE92f8169Ad74E;\r\n    address private constant myToken = 0xD90bDA252a5e2500A9B5445F3DD003aaa42B7D42;\r\n\r\n    address private constant UNISWAP_V2_ROUTER = 0x7a250d5630B4cF539739dF2C5dAcb4c659F2488D;\r\n    //address private constant WETH = 0xC02aaA39b223FE8D0A0e5C4F27eAD9083C756Cc2;\r\n    address private constant _WETH = 0xB4FBF271143F4FBf7B91A5ded31805e42b2208d6; // goerli\r\n\r\n    constructor() public {}\r\n\r\n    function addLiquidity() override external {\r\n\r\n      \r\n    }\r\n\r\n\r\n    function withdrawLiquidity() override external {\r\n\r\n\r\n    }\r\n\r\n    function swapYourTokenForDummyToken() override external {\r\n\r\n        IERC20(myToken).transferFrom(msg.sender, address(this), 0.001 ether);\r\n\r\n        IERC20(myToken).approve(address(UNISWAP_V2_ROUTER), 0.001 ether);\r\n\r\n        address[] memory path;\r\n        path = new address[](3);\r\n        path[0] = myToken;\r\n        path[1] = _WETH;\r\n        path[2] = dummyToken;\r\n\r\n        IUniswapV2Router(UNISWAP_V2_ROUTER).swapExactTokensForTokens(\r\n            1000 wei,\r\n            10 wei,\r\n            path,\r\n            address(this),\r\n            block.timestamp\r\n        );\r\n    }\r\n\r\n    function swapYourTokenForEth() override external {\r\n\r\n        IERC20(myToken).transferFrom(msg.sender, address(this), 0.001 ether);\r\n\r\n        // Give permission to move tokens\r\n        IERC20(myToken).approve(UNISWAP_V2_ROUTER, 0.001 ether);\r\n\r\n        address[] memory path;\r\n        // array des 2 addresses à swap\r\n        path = new address[](2);\r\n        path[0] = myToken;\r\n        path[1] = _WETH;\r\n        //path[1] = _UniswapV2Router02.WETH();\r\n\r\n        // Swap\r\n        IUniswapV2Router(UNISWAP_V2_ROUTER).swapExactTokensForTokens(\r\n            0.001 ether,\r\n            10 wei,\r\n            path,\r\n            address(this),\r\n            block.timestamp\r\n        );\r\n    }\r\n\r\n    \r\n    function swap(\r\n        address _tokenIn,\r\n        address _tokenOut,\r\n        uint256 _amountIn,\r\n        uint256 _amountOutMin,\r\n        address _to\r\n    ) external {\r\n        IERC20(_tokenIn).transferFrom(msg.sender, address(this), _amountIn); // Send money to this smart contract\r\n        IERC20(_tokenIn).approve(UNISWAP_V2_ROUTER, _amountIn); // Allow uniswap router to use/swap the money we just transfere\r\n\r\n        address[] memory path;\r\n        if (_tokenIn == _WETH || _tokenOut == _WETH) {\r\n            path = new address[](2);\r\n            path[0] = _tokenIn;\r\n            path[1] = _tokenOut;\r\n        } else {\r\n            path = new address[](3);\r\n            path[0] = _tokenIn;\r\n            path[1] = _WETH;\r\n            path[2] = _tokenOut;\r\n        }\r\n\r\n        IUniswapV2Router(UNISWAP_V2_ROUTER).swapExactTokensForTokens(\r\n            _amountIn,\r\n            _amountOutMin,\r\n            path,\r\n            _to,\r\n            block.timestamp\r\n        );\r\n    }\r\n}",
  "sourcePath": "C:\\Users\\cleme\\OneDrive\\Documents\\Esilv - FIN\\Blockchain\\amm-101\\contracts\\ExerciceSolution.sol",
  "compiler": {
    "name": "solc",
    "version": "0.6.2+commit.bacdbe57.Emscripten.clang"
  },
  "schemaVersion": "3.4.11",
  "updatedAt": "2023-01-29T16:45:39.802Z",
  "networkType": "ethereum",
  "devdoc": {
    "methods": {}
  },
  "userdoc": {
    "methods": {}
  }
}