{
  "contractName": "ExerciceSolution",
  "abi": [
    {
      "inputs": [],
      "stateMutability": "nonpayable",
      "type": "constructor"
    },
    {
      "inputs": [],
      "name": "liquidity",
      "outputs": [
        {
          "internalType": "uint256",
          "name": "",
          "type": "uint256"
        }
      ],
      "stateMutability": "view",
      "type": "function",
      "constant": true
    },
    {
      "inputs": [],
      "name": "addLiquidity",
      "outputs": [],
      "stateMutability": "nonpayable",
      "type": "function"
    },
    {
      "inputs": [],
      "name": "withdrawLiquidity",
      "outputs": [],
      "stateMutability": "nonpayable",
      "type": "function"
    },
    {
      "inputs": [],
      "name": "swapYourTokenForDummyToken",
      "outputs": [],
      "stateMutability": "nonpayable",
      "type": "function"
    },
    {
      "inputs": [],
      "name": "swapYourTokenForEth",
      "outputs": [],
      "stateMutability": "nonpayable",
      "type": "function"
    },
    {
      "inputs": [
        {
          "internalType": "address",
          "name": "_tokenIn",
          "type": "address"
        },
        {
          "internalType": "address",
          "name": "_tokenOut",
          "type": "address"
        },
        {
          "internalType": "uint256",
          "name": "_amountIn",
          "type": "uint256"
        },
        {
          "internalType": "uint256",
          "name": "_amountOutMin",
          "type": "uint256"
        },
        {
          "internalType": "address",
          "name": "_to",
          "type": "address"
        }
      ],
      "name": "swap",
      "outputs": [],
      "stateMutability": "nonpayable",
      "type": "function"
    },
    {
      "inputs": [
        {
          "internalType": "address",
          "name": "_tokenIn",
          "type": "address"
        },
        {
          "internalType": "address",
          "name": "_tokenOut",
          "type": "address"
        },
        {
          "internalType": "uint256",
          "name": "_amountIn",
          "type": "uint256"
        }
      ],
      "name": "getAmountOutMin",
      "outputs": [
        {
          "internalType": "uint256",
          "name": "",
          "type": "uint256"
        }
      ],
      "stateMutability": "nonpayable",
      "type": "function"
    }
  ],
  "bytecode": "0x608060405234801561001057600080fd5b5061229d806100206000396000f3fe608060405234801561001057600080fd5b506004361061007d5760003560e01c80637ea382c11161005b5780637ea382c11461012c578063c4a8599314610136578063d5bcb9b514610140578063e8078d94146101d85761007d565b80631a686502146100825780633c50eec1146100a05780637c587b2214610122575b600080fd5b61008a6101e2565b6040518082815260200191505060405180910390f35b61010c600480360360608110156100b657600080fd5b81019080803573ffffffffffffffffffffffffffffffffffffffff169060200190929190803573ffffffffffffffffffffffffffffffffffffffff169060200190929190803590602001909291905050506101e8565b6040518082815260200191505060405180910390f35b61012a610612565b005b610134610b3e565b005b61013e610ef1565b005b6101d6600480360360a081101561015657600080fd5b81019080803573ffffffffffffffffffffffffffffffffffffffff169060200190929190803573ffffffffffffffffffffffffffffffffffffffff1690602001909291908035906020019092919080359060200190929190803573ffffffffffffffffffffffffffffffffffffffff1690602001909291905050506113b0565b005b6101e06119cc565b005b60005481565b6000606073b4fbf271143f4fbf7b91a5ded31805e42b2208d673ffffffffffffffffffffffffffffffffffffffff168573ffffffffffffffffffffffffffffffffffffffff161480610279575073b4fbf271143f4fbf7b91a5ded31805e42b2208d673ffffffffffffffffffffffffffffffffffffffff168473ffffffffffffffffffffffffffffffffffffffff16145b156103465760026040519080825280602002602001820160405280156102ae5781602001602082028038833980820191505090505b50905084816000815181106102bf57fe5b602002602001019073ffffffffffffffffffffffffffffffffffffffff16908173ffffffffffffffffffffffffffffffffffffffff1681525050838160018151811061030757fe5b602002602001019073ffffffffffffffffffffffffffffffffffffffff16908173ffffffffffffffffffffffffffffffffffffffff1681525050610466565b60036040519080825280602002602001820160405280156103765781602001602082028038833980820191505090505b509050848160008151811061038757fe5b602002602001019073ffffffffffffffffffffffffffffffffffffffff16908173ffffffffffffffffffffffffffffffffffffffff168152505073b4fbf271143f4fbf7b91a5ded31805e42b2208d6816001815181106103e357fe5b602002602001019073ffffffffffffffffffffffffffffffffffffffff16908173ffffffffffffffffffffffffffffffffffffffff1681525050838160028151811061042b57fe5b602002602001019073ffffffffffffffffffffffffffffffffffffffff16908173ffffffffffffffffffffffffffffffffffffffff16815250505b6060737a250d5630b4cf539739df2c5dacb4c659f2488d73ffffffffffffffffffffffffffffffffffffffff1663d06ca61f85846040518363ffffffff1660e01b81526004018083815260200180602001828103825283818151815260200191508051906020019060200280838360005b838110156104f25780820151818401526020810190506104d7565b505050509050019350505050600060405180830381600087803b15801561051857600080fd5b505af115801561052c573d6000803e3d6000fd5b505050506040513d6000823e3d601f19601f82011682018060405250602081101561055657600080fd5b810190808051604051939291908464010000000082111561057657600080fd5b8382019150602082018581111561058c57600080fd5b82518660208202830111640100000000821117156105a957600080fd5b8083526020830192505050908051906020019060200280838360005b838110156105e05780820151818401526020810190506105c5565b505050509050016040525050509050806001835103815181106105ff57fe5b6020026020010151925050509392505050565b733a739647cd105bb07ec9918a88d6e5dda9d4898b73ffffffffffffffffffffffffffffffffffffffff166323b872dd3330683635c9adc5dea000006040518463ffffffff1660e01b8152600401808473ffffffffffffffffffffffffffffffffffffffff1673ffffffffffffffffffffffffffffffffffffffff1681526020018373ffffffffffffffffffffffffffffffffffffffff1673ffffffffffffffffffffffffffffffffffffffff1681526020018281526020019350505050602060405180830381600087803b1580156106ea57600080fd5b505af11580156106fe573d6000803e3d6000fd5b505050506040513d602081101561071457600080fd5b810190808051906020019092919050505050733a739647cd105bb07ec9918a88d6e5dda9d4898b73ffffffffffffffffffffffffffffffffffffffff1663095ea7b3737a250d5630b4cf539739df2c5dacb4c659f2488d683635c9adc5dea000006040518363ffffffff1660e01b8152600401808373ffffffffffffffffffffffffffffffffffffffff1673ffffffffffffffffffffffffffffffffffffffff16815260200182815260200192505050602060405180830381600087803b1580156107de57600080fd5b505af11580156107f2573d6000803e3d6000fd5b505050506040513d602081101561080857600080fd5b8101908080519060200190929190505050506060600360405190808252806020026020018201604052801561084c5781602001602082028038833980820191505090505b509050733a739647cd105bb07ec9918a88d6e5dda9d4898b8160008151811061087157fe5b602002602001019073ffffffffffffffffffffffffffffffffffffffff16908173ffffffffffffffffffffffffffffffffffffffff168152505073b4fbf271143f4fbf7b91a5ded31805e42b2208d6816001815181106108cd57fe5b602002602001019073ffffffffffffffffffffffffffffffffffffffff16908173ffffffffffffffffffffffffffffffffffffffff1681525050732af483edae4cce53186e6ed418fe92f8169ad74e8160028151811061092957fe5b602002602001019073ffffffffffffffffffffffffffffffffffffffff16908173ffffffffffffffffffffffffffffffffffffffff1681525050737a250d5630b4cf539739df2c5dacb4c659f2488d73ffffffffffffffffffffffffffffffffffffffff166338ed1739683635c9adc5dea000006001843061012c42016040518663ffffffff1660e01b815260040180868152602001858152602001806020018473ffffffffffffffffffffffffffffffffffffffff1673ffffffffffffffffffffffffffffffffffffffff168152602001838152602001828103825285818151815260200191508051906020019060200280838360005b83811015610a3c578082015181840152602081019050610a21565b505050509050019650505050505050600060405180830381600087803b158015610a6557600080fd5b505af1158015610a79573d6000803e3d6000fd5b505050506040513d6000823e3d601f19601f820116820180604052506020811015610aa357600080fd5b8101908080516040519392919084640100000000821115610ac357600080fd5b83820191506020820185811115610ad957600080fd5b8251866020820283011164010000000082111715610af657600080fd5b8083526020830192505050908051906020019060200280838360005b83811015610b2d578082015181840152602081019050610b12565b505050509050016040525050505050565b6000735c69bee701ef814a2b6a3edd4b1652cb9cc5aa6f73ffffffffffffffffffffffffffffffffffffffff1663e6a43905733a739647cd105bb07ec9918a88d6e5dda9d4898b73b4fbf271143f4fbf7b91a5ded31805e42b2208d66040518363ffffffff1660e01b8152600401808373ffffffffffffffffffffffffffffffffffffffff1673ffffffffffffffffffffffffffffffffffffffff1681526020018273ffffffffffffffffffffffffffffffffffffffff1673ffffffffffffffffffffffffffffffffffffffff1681526020019250505060206040518083038186803b158015610c2d57600080fd5b505afa158015610c41573d6000803e3d6000fd5b505050506040513d6020811015610c5757600080fd5b810190808051906020019092919050505090506000600260005481610c7857fe5b049050600061012c420190508273ffffffffffffffffffffffffffffffffffffffff1663095ea7b3737a250d5630b4cf539739df2c5dacb4c659f2488d846040518363ffffffff1660e01b8152600401808373ffffffffffffffffffffffffffffffffffffffff1673ffffffffffffffffffffffffffffffffffffffff16815260200182815260200192505050602060405180830381600087803b158015610d1f57600080fd5b505af1158015610d33573d6000803e3d6000fd5b505050506040513d6020811015610d4957600080fd5b810190808051906020019092919050505050600080737a250d5630b4cf539739df2c5dacb4c659f2488d73ffffffffffffffffffffffffffffffffffffffff1663baa2abde733a739647cd105bb07ec9918a88d6e5dda9d4898b73b4fbf271143f4fbf7b91a5ded31805e42b2208d687600180308a6040518863ffffffff1660e01b8152600401808873ffffffffffffffffffffffffffffffffffffffff1673ffffffffffffffffffffffffffffffffffffffff1681526020018773ffffffffffffffffffffffffffffffffffffffff1673ffffffffffffffffffffffffffffffffffffffff1681526020018681526020018581526020018481526020018373ffffffffffffffffffffffffffffffffffffffff1673ffffffffffffffffffffffffffffffffffffffff1681526020018281526020019750505050505050506040805180830381600087803b158015610ea157600080fd5b505af1158015610eb5573d6000803e3d6000fd5b505050506040513d6040811015610ecb57600080fd5b810190808051906020019092919080519060200190929190505050915091505050505050565b733a739647cd105bb07ec9918a88d6e5dda9d4898b73ffffffffffffffffffffffffffffffffffffffff1663095ea7b3737a250d5630b4cf539739df2c5dacb4c659f2488d683635c9adc5dea000006040518363ffffffff1660e01b8152600401808373ffffffffffffffffffffffffffffffffffffffff1673ffffffffffffffffffffffffffffffffffffffff16815260200182815260200192505050602060405180830381600087803b158015610fa957600080fd5b505af1158015610fbd573d6000803e3d6000fd5b505050506040513d6020811015610fd357600080fd5b8101908080519060200190929190505050610fed57600080fd5b73b4fbf271143f4fbf7b91a5ded31805e42b2208d673ffffffffffffffffffffffffffffffffffffffff1663095ea7b3737a250d5630b4cf539739df2c5dacb4c659f2488d683635c9adc5dea000006040518363ffffffff1660e01b8152600401808373ffffffffffffffffffffffffffffffffffffffff1673ffffffffffffffffffffffffffffffffffffffff16815260200182815260200192505050602060405180830381600087803b1580156110a557600080fd5b505af11580156110b9573d6000803e3d6000fd5b505050506040513d60208110156110cf57600080fd5b81019080805190602001909291905050506110e957600080fd5b6060600260405190808252806020026020018201604052801561111b5781602001602082028038833980820191505090505b509050733a739647cd105bb07ec9918a88d6e5dda9d4898b8160008151811061114057fe5b602002602001019073ffffffffffffffffffffffffffffffffffffffff16908173ffffffffffffffffffffffffffffffffffffffff168152505073b4fbf271143f4fbf7b91a5ded31805e42b2208d68160018151811061119c57fe5b602002602001019073ffffffffffffffffffffffffffffffffffffffff16908173ffffffffffffffffffffffffffffffffffffffff1681525050737a250d5630b4cf539739df2c5dacb4c659f2488d73ffffffffffffffffffffffffffffffffffffffff166338ed1739678ac7230489e800006001843061012c42016040518663ffffffff1660e01b815260040180868152602001858152602001806020018473ffffffffffffffffffffffffffffffffffffffff1673ffffffffffffffffffffffffffffffffffffffff168152602001838152602001828103825285818151815260200191508051906020019060200280838360005b838110156112ae578082015181840152602081019050611293565b505050509050019650505050505050600060405180830381600087803b1580156112d757600080fd5b505af11580156112eb573d6000803e3d6000fd5b505050506040513d6000823e3d601f19601f82011682018060405250602081101561131557600080fd5b810190808051604051939291908464010000000082111561133557600080fd5b8382019150602082018581111561134b57600080fd5b825186602082028301116401000000008211171561136857600080fd5b8083526020830192505050908051906020019060200280838360005b8381101561139f578082015181840152602081019050611384565b505050509050016040525050505050565b8473ffffffffffffffffffffffffffffffffffffffff166323b872dd3330866040518463ffffffff1660e01b8152600401808473ffffffffffffffffffffffffffffffffffffffff1673ffffffffffffffffffffffffffffffffffffffff1681526020018373ffffffffffffffffffffffffffffffffffffffff1673ffffffffffffffffffffffffffffffffffffffff1681526020018281526020019350505050602060405180830381600087803b15801561146b57600080fd5b505af115801561147f573d6000803e3d6000fd5b505050506040513d602081101561149557600080fd5b8101908080519060200190929190505050508473ffffffffffffffffffffffffffffffffffffffff1663095ea7b3737a250d5630b4cf539739df2c5dacb4c659f2488d856040518363ffffffff1660e01b8152600401808373ffffffffffffffffffffffffffffffffffffffff1673ffffffffffffffffffffffffffffffffffffffff16815260200182815260200192505050602060405180830381600087803b15801561154257600080fd5b505af1158015611556573d6000803e3d6000fd5b505050506040513d602081101561156c57600080fd5b810190808051906020019092919050505050606073b4fbf271143f4fbf7b91a5ded31805e42b2208d673ffffffffffffffffffffffffffffffffffffffff168673ffffffffffffffffffffffffffffffffffffffff16148061160d575073b4fbf271143f4fbf7b91a5ded31805e42b2208d673ffffffffffffffffffffffffffffffffffffffff168573ffffffffffffffffffffffffffffffffffffffff16145b156116da5760026040519080825280602002602001820160405280156116425781602001602082028038833980820191505090505b509050858160008151811061165357fe5b602002602001019073ffffffffffffffffffffffffffffffffffffffff16908173ffffffffffffffffffffffffffffffffffffffff1681525050848160018151811061169b57fe5b602002602001019073ffffffffffffffffffffffffffffffffffffffff16908173ffffffffffffffffffffffffffffffffffffffff16815250506117fa565b600360405190808252806020026020018201604052801561170a5781602001602082028038833980820191505090505b509050858160008151811061171b57fe5b602002602001019073ffffffffffffffffffffffffffffffffffffffff16908173ffffffffffffffffffffffffffffffffffffffff168152505073b4fbf271143f4fbf7b91a5ded31805e42b2208d68160018151811061177757fe5b602002602001019073ffffffffffffffffffffffffffffffffffffffff16908173ffffffffffffffffffffffffffffffffffffffff168152505084816002815181106117bf57fe5b602002602001019073ffffffffffffffffffffffffffffffffffffffff16908173ffffffffffffffffffffffffffffffffffffffff16815250505b737a250d5630b4cf539739df2c5dacb4c659f2488d73ffffffffffffffffffffffffffffffffffffffff166338ed173985858486426040518663ffffffff1660e01b815260040180868152602001858152602001806020018473ffffffffffffffffffffffffffffffffffffffff1673ffffffffffffffffffffffffffffffffffffffff168152602001838152602001828103825285818151815260200191508051906020019060200280838360005b838110156118c55780820151818401526020810190506118aa565b505050509050019650505050505050600060405180830381600087803b1580156118ee57600080fd5b505af1158015611902573d6000803e3d6000fd5b505050506040513d6000823e3d601f19601f82011682018060405250602081101561192c57600080fd5b810190808051604051939291908464010000000082111561194c57600080fd5b8382019150602082018581111561196257600080fd5b825186602082028301116401000000008211171561197f57600080fd5b8083526020830192505050908051906020019060200280838360005b838110156119b657808201518184015260208101905061199b565b5050505090500160405250505050505050505050565b733a739647cd105bb07ec9918a88d6e5dda9d4898b73ffffffffffffffffffffffffffffffffffffffff166323b872dd3330678ac7230489e800006040518463ffffffff1660e01b8152600401808473ffffffffffffffffffffffffffffffffffffffff1673ffffffffffffffffffffffffffffffffffffffff1681526020018373ffffffffffffffffffffffffffffffffffffffff1673ffffffffffffffffffffffffffffffffffffffff1681526020018281526020019350505050602060405180830381600087803b158015611aa357600080fd5b505af1158015611ab7573d6000803e3d6000fd5b505050506040513d6020811015611acd57600080fd5b81019080805190602001909291905050505073b4fbf271143f4fbf7b91a5ded31805e42b2208d673ffffffffffffffffffffffffffffffffffffffff166323b872dd3330662386f26fc100006040518463ffffffff1660e01b8152600401808473ffffffffffffffffffffffffffffffffffffffff1673ffffffffffffffffffffffffffffffffffffffff1681526020018373ffffffffffffffffffffffffffffffffffffffff1673ffffffffffffffffffffffffffffffffffffffff1681526020018281526020019350505050602060405180830381600087803b158015611bb557600080fd5b505af1158015611bc9573d6000803e3d6000fd5b505050506040513d6020811015611bdf57600080fd5b810190808051906020019092919050505050600073b4fbf271143f4fbf7b91a5ded31805e42b2208d673ffffffffffffffffffffffffffffffffffffffff166370a08231306040518263ffffffff1660e01b8152600401808273ffffffffffffffffffffffffffffffffffffffff1673ffffffffffffffffffffffffffffffffffffffff16815260200191505060206040518083038186803b158015611c8457600080fd5b505afa158015611c98573d6000803e3d6000fd5b505050506040513d6020811015611cae57600080fd5b810190808051906020019092919050505090506000733a739647cd105bb07ec9918a88d6e5dda9d4898b73ffffffffffffffffffffffffffffffffffffffff166370a08231306040518263ffffffff1660e01b8152600401808273ffffffffffffffffffffffffffffffffffffffff1673ffffffffffffffffffffffffffffffffffffffff16815260200191505060206040518083038186803b158015611d5457600080fd5b505afa158015611d68573d6000803e3d6000fd5b505050506040513d6020811015611d7e57600080fd5b81019080805190602001909291905050509050678ac7230489e80000811015611e0f576040517f08c379a00000000000000000000000000000000000000000000000000000000081526004018080602001828103825260088152602001807f4e6f20746f6b656e00000000000000000000000000000000000000000000000081525060200191505060405180910390fd5b662386f26fc10000821015611e8c576040517f08c379a00000000000000000000000000000000000000000000000000000000081526004018080602001828103825260078152602001807f4e6f20776574680000000000000000000000000000000000000000000000000081525060200191505060405180910390fd5b600060028281611e9857fe5b0490506000600190506000611ed6733a739647cd105bb07ec9918a88d6e5dda9d4898b73b4fbf271143f4fbf7b91a5ded31805e42b2208d6856101e8565b9050600061012c4201905073b4fbf271143f4fbf7b91a5ded31805e42b2208d673ffffffffffffffffffffffffffffffffffffffff1663095ea7b3737a250d5630b4cf539739df2c5dacb4c659f2488d866040518363ffffffff1660e01b8152600401808373ffffffffffffffffffffffffffffffffffffffff1673ffffffffffffffffffffffffffffffffffffffff16815260200182815260200192505050602060405180830381600087803b158015611f9057600080fd5b505af1158015611fa4573d6000803e3d6000fd5b505050506040513d6020811015611fba57600080fd5b810190808051906020019092919050505050733a739647cd105bb07ec9918a88d6e5dda9d4898b73ffffffffffffffffffffffffffffffffffffffff1663095ea7b3737a250d5630b4cf539739df2c5dacb4c659f2488d866040518363ffffffff1660e01b8152600401808373ffffffffffffffffffffffffffffffffffffffff1673ffffffffffffffffffffffffffffffffffffffff16815260200182815260200192505050602060405180830381600087803b15801561207b57600080fd5b505af115801561208f573d6000803e3d6000fd5b505050506040513d60208110156120a557600080fd5b810190808051906020019092919050505050737a250d5630b4cf539739df2c5dacb4c659f2488d73ffffffffffffffffffffffffffffffffffffffff1663e8e33700733a739647cd105bb07ec9918a88d6e5dda9d4898b73b4fbf271143f4fbf7b91a5ded31805e42b2208d68786888830896040518963ffffffff1660e01b8152600401808973ffffffffffffffffffffffffffffffffffffffff1673ffffffffffffffffffffffffffffffffffffffff1681526020018873ffffffffffffffffffffffffffffffffffffffff1673ffffffffffffffffffffffffffffffffffffffff1681526020018781526020018681526020018581526020018481526020018373ffffffffffffffffffffffffffffffffffffffff1673ffffffffffffffffffffffffffffffffffffffff16815260200182815260200198505050505050505050606060405180830381600087803b15801561220257600080fd5b505af1158015612216573d6000803e3d6000fd5b505050506040513d606081101561222c57600080fd5b81019080805190602001909291908051906020019092919080519060200190929190505050909150905060008082919050555050505050505056fea2646970667358221220cf9cd96bf1548ea4ca290039358599d31fdc5b38a8e7ce7cbcf69d42963a17a264736f6c63430006020033",
  "source": "pragma solidity ^0.6.2;\r\nimport \"./utils/IUniswapV2Router.sol\";\r\nimport \"./utils/IUniswapV2Pair.sol\";\r\nimport \"./utils/IUniswapV2Factory.sol\";\r\nimport \"./IExerciceSolution.sol\";\r\nimport \"./IERC20.sol\";\r\n\r\ncontract ExerciceSolution is IExerciceSolution\r\n{\r\n    address private constant dummyToken = 0x2aF483edaE4cce53186E6ed418FE92f8169Ad74E;\r\n    address private constant myToken = 0x3a739647Cd105BB07eC9918A88D6E5DdA9D4898b;\r\n\r\n    address private constant UNISWAP_V2_ROUTER = 0x7a250d5630B4cF539739dF2C5dAcb4c659F2488D;\r\n    address private constant UNISWAP_V2_FACTORY = 0x5C69bEe701ef814a2B6a3EDD4B1652CB9cc5aA6f;\r\n\r\n    address private constant metamask = 0x589563701c2270930f57fdCaa84aEdCBb891622A;\r\n\r\n    //address private constant WETH = 0xC02aaA39b223FE8D0A0e5C4F27eAD9083C756Cc2;\r\n    address private constant _WETH = 0xB4FBF271143F4FBf7B91A5ded31805e42b2208d6; // goerli\r\n\r\n    uint public liquidity; // quantity of the pool this contract own\r\n\r\n    constructor() public {}\r\n\r\n    function addLiquidity() override external {\r\n\r\n        IERC20(myToken).transferFrom(msg.sender, address(this), 10 ether);\r\n        IERC20(_WETH).transferFrom(msg.sender, address(this), 0.01 ether);\r\n\r\n        uint myWethAmount = IERC20(_WETH).balanceOf(address(this));\r\n        uint myTokenAmount = IERC20(myToken).balanceOf(address(this));\r\n\r\n        require(myTokenAmount >= 10 ether, \"No token\");\r\n        require(myWethAmount >= 0.01 ether, \"No weth\");\r\n\r\n        uint amountTokenDesired = myTokenAmount / 2;\r\n        uint amountTokenMin = 1;\r\n        // uint amountETHMin = 1;\r\n        uint amountETHMin = getAmountOutMin(myToken, _WETH, amountTokenDesired);\r\n        uint deadline = block.timestamp + 300;\r\n\r\n        IERC20(_WETH).approve(address(UNISWAP_V2_ROUTER), amountTokenDesired);\r\n        IERC20(myToken).approve(address(UNISWAP_V2_ROUTER), amountTokenDesired);\r\n\r\n        (, , liquidity) = IUniswapV2Router(UNISWAP_V2_ROUTER).addLiquidity(myToken, _WETH, amountTokenDesired, amountETHMin, amountTokenMin, amountETHMin, address(this), deadline);\r\n    }\r\n\r\n    function withdrawLiquidity() override external {\r\n\r\n        address myTokenAndWethPairAddress = IUniswapV2Factory(UNISWAP_V2_FACTORY).getPair(myToken, _WETH);\r\n\r\n        uint liquidityToRemove = liquidity/2; //IERC20(myTokenAndWethPairAddress).balanceOf(address(this));\r\n        uint deadline = block.timestamp + 300;\r\n\r\n        IERC20(myTokenAndWethPairAddress).approve(address(UNISWAP_V2_ROUTER), liquidityToRemove);\r\n\r\n        (uint256 amountA, uint256 amountB) = IUniswapV2Router(UNISWAP_V2_ROUTER).removeLiquidity(myToken, _WETH, liquidityToRemove, 1, 1, address(this), deadline);\r\n    }\r\n\r\n    function swapYourTokenForDummyToken() override external {  // 'ERC20: transfer amount exceeds balance' if called from Evaluator\r\n\r\n        // IERC20(myToken).approve(address(this), 1000 ether); // doesnt work -> approve manually if on testnet\r\n\r\n        IERC20(myToken).transferFrom(msg.sender, address(this), 1000 ether);\r\n\r\n        IERC20(myToken).approve(address(UNISWAP_V2_ROUTER), 1000 ether);\r\n\r\n        address[] memory path;\r\n        path = new address[](3);\r\n        path[0] = myToken;\r\n        path[1] = _WETH;\r\n        path[2] = dummyToken;\r\n\r\n        IUniswapV2Router(UNISWAP_V2_ROUTER).swapExactTokensForTokens(\r\n            1000 ether,\r\n            1,\r\n            path,\r\n            address(this),\r\n            block.timestamp+300\r\n        );\r\n    }\r\n\r\n    function swapYourTokenForEth() override external {\r\n\r\n        // IERC20(myToken).transferFrom(msg.sender, address(this), 10 ether);\r\n\r\n        // Give permission to move tokens\r\n        // IERC20(myToken).approve(UNISWAP_V2_ROUTER, 10 ether);\r\n        require(IERC20(myToken).approve(UNISWAP_V2_ROUTER, 1000 ether));\r\n        require(IERC20(_WETH).approve(UNISWAP_V2_ROUTER, 1000 ether));\r\n\r\n        address[] memory path;\r\n        // array des 2 addresses  swap\r\n        path = new address[](2);\r\n        path[0] = myToken;\r\n        path[1] = _WETH;\r\n        //path[1] = _UniswapV2Router02.WETH();\r\n\r\n        // Swap\r\n        IUniswapV2Router(UNISWAP_V2_ROUTER).swapExactTokensForTokens(\r\n            10 ether, // The amount of input tokens to send \r\n            1, // The minimum amount of output tokens that must be received for the transaction not to revert.\r\n            path,\r\n            address(this),\r\n            block.timestamp+300\r\n        );\r\n    }\r\n\r\n    \r\n    function swap(\r\n        address _tokenIn,\r\n        address _tokenOut,\r\n        uint256 _amountIn,\r\n        uint256 _amountOutMin,\r\n        address _to\r\n    ) external {\r\n\r\n        //first we need to transfer the amount in tokens from the msg.sender to this contract\r\n        //this contract will have the amount of in tokens\r\n        IERC20(_tokenIn).transferFrom(msg.sender, address(this), _amountIn);\r\n\r\n        //next we need to allow the uniswapv2 router to spend the token we just sent to this contract\r\n        //by calling IERC20 approve you allow the uniswap contract to spend the tokens in this contract \r\n        IERC20(_tokenIn).approve(UNISWAP_V2_ROUTER, _amountIn); \r\n\r\n        //path is an array of addresses.\r\n        //this path array will have 3 addresses [tokenIn, WETH, tokenOut]\r\n        //the if statement below takes into account if token in or token out is WETH.  then the path is only 2 addresses\r\n        address[] memory path;\r\n        if (_tokenIn == _WETH || _tokenOut == _WETH) {\r\n            path = new address[](2);\r\n            path[0] = _tokenIn;\r\n            path[1] = _tokenOut;\r\n        } else {\r\n            path = new address[](3);\r\n            path[0] = _tokenIn;\r\n            path[1] = _WETH;\r\n            path[2] = _tokenOut;\r\n        }\r\n\r\n        //then we will call swapExactTokensForTokens\r\n        //for the deadline we will pass in block.timestamp\r\n        //the deadline is the latest time the trade is valid for\r\n        IUniswapV2Router(UNISWAP_V2_ROUTER).swapExactTokensForTokens(\r\n            _amountIn,\r\n            _amountOutMin,\r\n            path,\r\n            _to,\r\n            block.timestamp\r\n        );\r\n    }\r\n\r\n\r\n     function getAmountOutMin(address _tokenIn, address _tokenOut, uint256 _amountIn) public returns (uint256) {\r\n\r\n       //path is an array of addresses.\r\n       //this path array will have 3 addresses [tokenIn, WETH, tokenOut]\r\n       //the if statement below takes into account if token in or token out is WETH.  then the path is only 2 addresses\r\n        address[] memory path;\r\n        if (_tokenIn == _WETH || _tokenOut == _WETH) {\r\n            path = new address[](2);\r\n            path[0] = _tokenIn;\r\n            path[1] = _tokenOut;\r\n        } else {\r\n            path = new address[](3);\r\n            path[0] = _tokenIn;\r\n            path[1] = _WETH;\r\n            path[2] = _tokenOut;\r\n        }\r\n        \r\n        uint256[] memory amountOutMins = IUniswapV2Router(UNISWAP_V2_ROUTER).getAmountsOut(_amountIn, path);\r\n        return amountOutMins[path.length -1];  \r\n    }\r\n}",
  "sourcePath": "C:\\Users\\cleme\\OneDrive\\Documents\\Esilv - FIN\\Blockchain\\amm-101\\contracts\\ExerciceSolution.sol",
  "compiler": {
    "name": "solc",
    "version": "0.6.2+commit.bacdbe57.Emscripten.clang"
  },
  "schemaVersion": "3.4.3",
  "updatedAt": "2023-02-06T14:58:40.271Z",
  "networkType": "ethereum",
  "devdoc": {
    "methods": {}
  },
  "userdoc": {
    "methods": {}
  }
}